{
  "_format": "hh-sol-artifact-1",
  "contractName": "CarbonToken",
  "sourceName": "contracts/CarbonToken.sol",
  "abi": [
    {
      "inputs": [
        {
          "internalType": "string",
          "name": "name_",
          "type": "string"
        },
        {
          "internalType": "string",
          "name": "symbol_",
          "type": "string"
        }
      ],
      "stateMutability": "nonpayable",
      "type": "constructor"
    },
    {
      "inputs": [
        {
          "internalType": "address",
          "name": "spender",
          "type": "address"
        },
        {
          "internalType": "uint256",
          "name": "allowance",
          "type": "uint256"
        },
        {
          "internalType": "uint256",
          "name": "needed",
          "type": "uint256"
        }
      ],
      "name": "ERC20InsufficientAllowance",
      "type": "error"
    },
    {
      "inputs": [
        {
          "internalType": "address",
          "name": "sender",
          "type": "address"
        },
        {
          "internalType": "uint256",
          "name": "balance",
          "type": "uint256"
        },
        {
          "internalType": "uint256",
          "name": "needed",
          "type": "uint256"
        }
      ],
      "name": "ERC20InsufficientBalance",
      "type": "error"
    },
    {
      "inputs": [
        {
          "internalType": "address",
          "name": "approver",
          "type": "address"
        }
      ],
      "name": "ERC20InvalidApprover",
      "type": "error"
    },
    {
      "inputs": [
        {
          "internalType": "address",
          "name": "receiver",
          "type": "address"
        }
      ],
      "name": "ERC20InvalidReceiver",
      "type": "error"
    },
    {
      "inputs": [
        {
          "internalType": "address",
          "name": "sender",
          "type": "address"
        }
      ],
      "name": "ERC20InvalidSender",
      "type": "error"
    },
    {
      "inputs": [
        {
          "internalType": "address",
          "name": "spender",
          "type": "address"
        }
      ],
      "name": "ERC20InvalidSpender",
      "type": "error"
    },
    {
      "inputs": [
        {
          "internalType": "address",
          "name": "owner",
          "type": "address"
        }
      ],
      "name": "OwnableInvalidOwner",
      "type": "error"
    },
    {
      "inputs": [
        {
          "internalType": "address",
          "name": "account",
          "type": "address"
        }
      ],
      "name": "OwnableUnauthorizedAccount",
      "type": "error"
    },
    {
      "anonymous": false,
      "inputs": [
        {
          "indexed": true,
          "internalType": "address",
          "name": "owner",
          "type": "address"
        },
        {
          "indexed": true,
          "internalType": "address",
          "name": "spender",
          "type": "address"
        },
        {
          "indexed": false,
          "internalType": "uint256",
          "name": "value",
          "type": "uint256"
        }
      ],
      "name": "Approval",
      "type": "event"
    },
    {
      "anonymous": false,
      "inputs": [
        {
          "indexed": true,
          "internalType": "address",
          "name": "previousOwner",
          "type": "address"
        },
        {
          "indexed": true,
          "internalType": "address",
          "name": "newOwner",
          "type": "address"
        }
      ],
      "name": "OwnershipTransferred",
      "type": "event"
    },
    {
      "anonymous": false,
      "inputs": [
        {
          "indexed": true,
          "internalType": "uint256",
          "name": "projectId",
          "type": "uint256"
        },
        {
          "indexed": true,
          "internalType": "address",
          "name": "issuer",
          "type": "address"
        },
        {
          "indexed": false,
          "internalType": "uint256",
          "name": "amount",
          "type": "uint256"
        },
        {
          "indexed": false,
          "internalType": "string",
          "name": "metadata",
          "type": "string"
        }
      ],
      "name": "ProjectMinted",
      "type": "event"
    },
    {
      "anonymous": false,
      "inputs": [
        {
          "indexed": true,
          "internalType": "address",
          "name": "from",
          "type": "address"
        },
        {
          "indexed": true,
          "internalType": "address",
          "name": "to",
          "type": "address"
        },
        {
          "indexed": false,
          "internalType": "uint256",
          "name": "value",
          "type": "uint256"
        }
      ],
      "name": "Transfer",
      "type": "event"
    },
    {
      "inputs": [
        {
          "internalType": "address",
          "name": "owner",
          "type": "address"
        },
        {
          "internalType": "address",
          "name": "spender",
          "type": "address"
        }
      ],
      "name": "allowance",
      "outputs": [
        {
          "internalType": "uint256",
          "name": "",
          "type": "uint256"
        }
      ],
      "stateMutability": "view",
      "type": "function"
    },
    {
      "inputs": [
        {
          "internalType": "address",
          "name": "spender",
          "type": "address"
        },
        {
          "internalType": "uint256",
          "name": "value",
          "type": "uint256"
        }
      ],
      "name": "approve",
      "outputs": [
        {
          "internalType": "bool",
          "name": "",
          "type": "bool"
        }
      ],
      "stateMutability": "nonpayable",
      "type": "function"
    },
    {
      "inputs": [
        {
          "internalType": "address",
          "name": "account",
          "type": "address"
        }
      ],
      "name": "balanceOf",
      "outputs": [
        {
          "internalType": "uint256",
          "name": "",
          "type": "uint256"
        }
      ],
      "stateMutability": "view",
      "type": "function"
    },
    {
      "inputs": [],
      "name": "decimals",
      "outputs": [
        {
          "internalType": "uint8",
          "name": "",
          "type": "uint8"
        }
      ],
      "stateMutability": "view",
      "type": "function"
    },
    {
      "inputs": [
        {
          "internalType": "uint256",
          "name": "",
          "type": "uint256"
        }
      ],
      "name": "metadataHash",
      "outputs": [
        {
          "internalType": "string",
          "name": "",
          "type": "string"
        }
      ],
      "stateMutability": "view",
      "type": "function"
    },
    {
      "inputs": [
        {
          "internalType": "address",
          "name": "to",
          "type": "address"
        },
        {
          "internalType": "uint256",
          "name": "amount",
          "type": "uint256"
        },
        {
          "internalType": "string",
          "name": "ipfsHash",
          "type": "string"
        }
      ],
      "name": "mintForProject",
      "outputs": [
        {
          "internalType": "uint256",
          "name": "",
          "type": "uint256"
        }
      ],
      "stateMutability": "nonpayable",
      "type": "function"
    },
    {
      "inputs": [],
      "name": "name",
      "outputs": [
        {
          "internalType": "string",
          "name": "",
          "type": "string"
        }
      ],
      "stateMutability": "view",
      "type": "function"
    },
    {
      "inputs": [],
      "name": "nextProjectId",
      "outputs": [
        {
          "internalType": "uint256",
          "name": "",
          "type": "uint256"
        }
      ],
      "stateMutability": "view",
      "type": "function"
    },
    {
      "inputs": [],
      "name": "owner",
      "outputs": [
        {
          "internalType": "address",
          "name": "",
          "type": "address"
        }
      ],
      "stateMutability": "view",
      "type": "function"
    },
    {
      "inputs": [],
      "name": "renounceOwnership",
      "outputs": [],
      "stateMutability": "nonpayable",
      "type": "function"
    },
    {
      "inputs": [
        {
          "internalType": "uint256",
          "name": "amount",
          "type": "uint256"
        }
      ],
      "name": "retire",
      "outputs": [],
      "stateMutability": "nonpayable",
      "type": "function"
    },
    {
      "inputs": [],
      "name": "symbol",
      "outputs": [
        {
          "internalType": "string",
          "name": "",
          "type": "string"
        }
      ],
      "stateMutability": "view",
      "type": "function"
    },
    {
      "inputs": [],
      "name": "totalSupply",
      "outputs": [
        {
          "internalType": "uint256",
          "name": "",
          "type": "uint256"
        }
      ],
      "stateMutability": "view",
      "type": "function"
    },
    {
      "inputs": [
        {
          "internalType": "address",
          "name": "to",
          "type": "address"
        },
        {
          "internalType": "uint256",
          "name": "value",
          "type": "uint256"
        }
      ],
      "name": "transfer",
      "outputs": [
        {
          "internalType": "bool",
          "name": "",
          "type": "bool"
        }
      ],
      "stateMutability": "nonpayable",
      "type": "function"
    },
    {
      "inputs": [
        {
          "internalType": "address",
          "name": "from",
          "type": "address"
        },
        {
          "internalType": "address",
          "name": "to",
          "type": "address"
        },
        {
          "internalType": "uint256",
          "name": "value",
          "type": "uint256"
        }
      ],
      "name": "transferFrom",
      "outputs": [
        {
          "internalType": "bool",
          "name": "",
          "type": "bool"
        }
      ],
      "stateMutability": "nonpayable",
      "type": "function"
    },
    {
      "inputs": [
        {
          "internalType": "address",
          "name": "newOwner",
          "type": "address"
        }
      ],
      "name": "transferOwnership",
      "outputs": [],
      "stateMutability": "nonpayable",
      "type": "function"
    }
  ],
  "bytecode": "0x608060405260016007553480156200001657600080fd5b50604051620020073803806200200783398181016040528101906200003c91906200034d565b33828281600390816200005091906200061d565b5080600490816200006291906200061d565b505050600073ffffffffffffffffffffffffffffffffffffffff168173ffffffffffffffffffffffffffffffffffffffff1603620000da5760006040517f1e4fbdf7000000000000000000000000000000000000000000000000000000008152600401620000d1919062000749565b60405180910390fd5b620000eb81620000f460201b60201c565b50505062000766565b6000600560009054906101000a900473ffffffffffffffffffffffffffffffffffffffff16905081600560006101000a81548173ffffffffffffffffffffffffffffffffffffffff021916908373ffffffffffffffffffffffffffffffffffffffff1602179055508173ffffffffffffffffffffffffffffffffffffffff168173ffffffffffffffffffffffffffffffffffffffff167f8be0079c531659141344cd1fd0a4f28419497f9722a3daafe3b4186f6b6457e060405160405180910390a35050565b6000604051905090565b600080fd5b600080fd5b600080fd5b600080fd5b6000601f19601f8301169050919050565b7f4e487b7100000000000000000000000000000000000000000000000000000000600052604160045260246000fd5b6200022382620001d8565b810181811067ffffffffffffffff82111715620002455762000244620001e9565b5b80604052505050565b60006200025a620001ba565b905062000268828262000218565b919050565b600067ffffffffffffffff8211156200028b576200028a620001e9565b5b6200029682620001d8565b9050602081019050919050565b60005b83811015620002c3578082015181840152602081019050620002a6565b60008484015250505050565b6000620002e6620002e0846200026d565b6200024e565b905082815260208101848484011115620003055762000304620001d3565b5b62000312848285620002a3565b509392505050565b600082601f830112620003325762000331620001ce565b5b815162000344848260208601620002cf565b91505092915050565b60008060408385031215620003675762000366620001c4565b5b600083015167ffffffffffffffff811115620003885762000387620001c9565b5b62000396858286016200031a565b925050602083015167ffffffffffffffff811115620003ba57620003b9620001c9565b5b620003c8858286016200031a565b9150509250929050565b600081519050919050565b7f4e487b7100000000000000000000000000000000000000000000000000000000600052602260045260246000fd5b600060028204905060018216806200042557607f821691505b6020821081036200043b576200043a620003dd565b5b50919050565b60008190508160005260206000209050919050565b60006020601f8301049050919050565b600082821b905092915050565b600060088302620004a57fffffffffffffffffffffffffffffffffffffffffffffffffffffffffffffffff8262000466565b620004b1868362000466565b95508019841693508086168417925050509392505050565b6000819050919050565b6000819050919050565b6000620004fe620004f8620004f284620004c9565b620004d3565b620004c9565b9050919050565b6000819050919050565b6200051a83620004dd565b62000532620005298262000505565b84845462000473565b825550505050565b600090565b620005496200053a565b620005568184846200050f565b505050565b5b818110156200057e57620005726000826200053f565b6001810190506200055c565b5050565b601f821115620005cd57620005978162000441565b620005a28462000456565b81016020851015620005b2578190505b620005ca620005c18562000456565b8301826200055b565b50505b505050565b600082821c905092915050565b6000620005f260001984600802620005d2565b1980831691505092915050565b60006200060d8383620005df565b9150826002028217905092915050565b6200062882620003d2565b67ffffffffffffffff811115620006445762000643620001e9565b5b6200065082546200040c565b6200065d82828562000582565b600060209050601f83116001811462000695576000841562000680578287015190505b6200068c8582620005ff565b865550620006fc565b601f198416620006a58662000441565b60005b82811015620006cf57848901518255600182019150602085019450602081019050620006a8565b86831015620006ef5784890151620006eb601f891682620005df565b8355505b6001600288020188555050505b505050505050565b600073ffffffffffffffffffffffffffffffffffffffff82169050919050565b6000620007318262000704565b9050919050565b620007438162000724565b82525050565b600060208201905062000760600083018462000738565b92915050565b61189180620007766000396000f3fe608060405234801561001057600080fd5b50600436106101005760003560e01c8063715018a611610097578063a9059cbb11610066578063a9059cbb146102b1578063dd62ed3e146102e1578063e935b7b114610311578063f2fde38b1461032f57610100565b8063715018a61461023b5780638da5cb5b1461024557806395d89b41146102635780639ca733481461028157610100565b806323b872dd116100d357806323b872dd146101a1578063313ce567146101d15780633790cf57146101ef57806370a082311461020b57610100565b806306fdde0314610105578063095ea7b31461012357806318160ddd14610153578063219cc8bc14610171575b600080fd5b61010d61034b565b60405161011a919061106e565b60405180910390f35b61013d6004803603810190610138919061112e565b6103dd565b60405161014a9190611189565b60405180910390f35b61015b610400565b60405161016891906111b3565b60405180910390f35b61018b600480360381019061018691906111ce565b61040a565b604051610198919061106e565b60405180910390f35b6101bb60048036038101906101b691906111fb565b6104aa565b6040516101c89190611189565b60405180910390f35b6101d96104d9565b6040516101e6919061126a565b60405180910390f35b610209600480360381019061020491906111ce565b6104e2565b005b61022560048036038101906102209190611285565b6104ef565b60405161023291906111b3565b60405180910390f35b610243610537565b005b61024d61054b565b60405161025a91906112c1565b60405180910390f35b61026b610575565b604051610278919061106e565b60405180910390f35b61029b60048036038101906102969190611341565b610607565b6040516102a891906111b3565b60405180910390f35b6102cb60048036038101906102c6919061112e565b6106b8565b6040516102d89190611189565b60405180910390f35b6102fb60048036038101906102f691906113b5565b6106db565b60405161030891906111b3565b60405180910390f35b610319610762565b60405161032691906111b3565b60405180910390f35b61034960048036038101906103449190611285565b610768565b005b60606003805461035a90611424565b80601f016020809104026020016040519081016040528092919081815260200182805461038690611424565b80156103d35780601f106103a8576101008083540402835291602001916103d3565b820191906000526020600020905b8154815290600101906020018083116103b657829003601f168201915b5050505050905090565b6000806103e86107ee565b90506103f58185856107f6565b600191505092915050565b6000600254905090565b6006602052806000526040600020600091509050805461042990611424565b80601f016020809104026020016040519081016040528092919081815260200182805461045590611424565b80156104a25780601f10610477576101008083540402835291602001916104a2565b820191906000526020600020905b81548152906001019060200180831161048557829003601f168201915b505050505081565b6000806104b56107ee565b90506104c2858285610808565b6104cd85858561089d565b60019150509392505050565b60006012905090565b6104ec3382610991565b50565b60008060008373ffffffffffffffffffffffffffffffffffffffff1673ffffffffffffffffffffffffffffffffffffffff168152602001908152602001600020549050919050565b61053f610a13565b6105496000610a9a565b565b6000600560009054906101000a900473ffffffffffffffffffffffffffffffffffffffff16905090565b60606004805461058490611424565b80601f01602080910402602001604051908101604052809291908181526020018280546105b090611424565b80156105fd5780601f106105d2576101008083540402835291602001916105fd565b820191906000526020600020905b8154815290600101906020018083116105e057829003601f168201915b5050505050905090565b6000610611610a13565b60006007600081548092919061062690611484565b9190505590506106368686610b60565b83836006600084815260200190815260200160002091826106589291906116b2565b508573ffffffffffffffffffffffffffffffffffffffff16817f20ac00a21c85518afeb65eb0ad1745d29aa602cef0f44e6b1101b65de7ae42d18787876040516106a4939291906117be565b60405180910390a380915050949350505050565b6000806106c36107ee565b90506106d081858561089d565b600191505092915050565b6000600160008473ffffffffffffffffffffffffffffffffffffffff1673ffffffffffffffffffffffffffffffffffffffff16815260200190815260200160002060008373ffffffffffffffffffffffffffffffffffffffff1673ffffffffffffffffffffffffffffffffffffffff16815260200190815260200160002054905092915050565b60075481565b610770610a13565b600073ffffffffffffffffffffffffffffffffffffffff168173ffffffffffffffffffffffffffffffffffffffff16036107e25760006040517f1e4fbdf70000000000000000000000000000000000000000000000000000000081526004016107d991906112c1565b60405180910390fd5b6107eb81610a9a565b50565b600033905090565b6108038383836001610be2565b505050565b600061081484846106db565b90507fffffffffffffffffffffffffffffffffffffffffffffffffffffffffffffffff8110156108975781811015610887578281836040517ffb8f41b200000000000000000000000000000000000000000000000000000000815260040161087e939291906117f0565b60405180910390fd5b61089684848484036000610be2565b5b50505050565b600073ffffffffffffffffffffffffffffffffffffffff168373ffffffffffffffffffffffffffffffffffffffff160361090f5760006040517f96c6fd1e00000000000000000000000000000000000000000000000000000000815260040161090691906112c1565b60405180910390fd5b600073ffffffffffffffffffffffffffffffffffffffff168273ffffffffffffffffffffffffffffffffffffffff16036109815760006040517fec442f0500000000000000000000000000000000000000000000000000000000815260040161097891906112c1565b60405180910390fd5b61098c838383610db9565b505050565b600073ffffffffffffffffffffffffffffffffffffffff168273ffffffffffffffffffffffffffffffffffffffff1603610a035760006040517f96c6fd1e0000000000000000000000000000000000000000000000000000000081526004016109fa91906112c1565b60405180910390fd5b610a0f82600083610db9565b5050565b610a1b6107ee565b73ffffffffffffffffffffffffffffffffffffffff16610a3961054b565b73ffffffffffffffffffffffffffffffffffffffff1614610a9857610a5c6107ee565b6040517f118cdaa7000000000000000000000000000000000000000000000000000000008152600401610a8f91906112c1565b60405180910390fd5b565b6000600560009054906101000a900473ffffffffffffffffffffffffffffffffffffffff16905081600560006101000a81548173ffffffffffffffffffffffffffffffffffffffff021916908373ffffffffffffffffffffffffffffffffffffffff1602179055508173ffffffffffffffffffffffffffffffffffffffff168173ffffffffffffffffffffffffffffffffffffffff167f8be0079c531659141344cd1fd0a4f28419497f9722a3daafe3b4186f6b6457e060405160405180910390a35050565b600073ffffffffffffffffffffffffffffffffffffffff168273ffffffffffffffffffffffffffffffffffffffff1603610bd25760006040517fec442f05000000000000000000000000000000000000000000000000000000008152600401610bc991906112c1565b60405180910390fd5b610bde60008383610db9565b5050565b600073ffffffffffffffffffffffffffffffffffffffff168473ffffffffffffffffffffffffffffffffffffffff1603610c545760006040517fe602df05000000000000000000000000000000000000000000000000000000008152600401610c4b91906112c1565b60405180910390fd5b600073ffffffffffffffffffffffffffffffffffffffff168373ffffffffffffffffffffffffffffffffffffffff1603610cc65760006040517f94280d62000000000000000000000000000000000000000000000000000000008152600401610cbd91906112c1565b60405180910390fd5b81600160008673ffffffffffffffffffffffffffffffffffffffff1673ffffffffffffffffffffffffffffffffffffffff16815260200190815260200160002060008573ffffffffffffffffffffffffffffffffffffffff1673ffffffffffffffffffffffffffffffffffffffff168152602001908152602001600020819055508015610db3578273ffffffffffffffffffffffffffffffffffffffff168473ffffffffffffffffffffffffffffffffffffffff167f8c5be1e5ebec7d5bd14f71427d1e84f3dd0314c0f7b2291e5b200ac8c7c3b92584604051610daa91906111b3565b60405180910390a35b50505050565b600073ffffffffffffffffffffffffffffffffffffffff168373ffffffffffffffffffffffffffffffffffffffff1603610e0b578060026000828254610dff9190611827565b92505081905550610ede565b60008060008573ffffffffffffffffffffffffffffffffffffffff1673ffffffffffffffffffffffffffffffffffffffff16815260200190815260200160002054905081811015610e97578381836040517fe450d38c000000000000000000000000000000000000000000000000000000008152600401610e8e939291906117f0565b60405180910390fd5b8181036000808673ffffffffffffffffffffffffffffffffffffffff1673ffffffffffffffffffffffffffffffffffffffff16815260200190815260200160002081905550505b600073ffffffffffffffffffffffffffffffffffffffff168273ffffffffffffffffffffffffffffffffffffffff1603610f275780600260008282540392505081905550610f74565b806000808473ffffffffffffffffffffffffffffffffffffffff1673ffffffffffffffffffffffffffffffffffffffff168152602001908152602001600020600082825401925050819055505b8173ffffffffffffffffffffffffffffffffffffffff168373ffffffffffffffffffffffffffffffffffffffff167fddf252ad1be2c89b69c2b068fc378daa952ba7f163c4a11628f55a4df523b3ef83604051610fd191906111b3565b60405180910390a3505050565b600081519050919050565b600082825260208201905092915050565b60005b83811015611018578082015181840152602081019050610ffd565b60008484015250505050565b6000601f19601f8301169050919050565b600061104082610fde565b61104a8185610fe9565b935061105a818560208601610ffa565b61106381611024565b840191505092915050565b600060208201905081810360008301526110888184611035565b905092915050565b600080fd5b600080fd5b600073ffffffffffffffffffffffffffffffffffffffff82169050919050565b60006110c58261109a565b9050919050565b6110d5816110ba565b81146110e057600080fd5b50565b6000813590506110f2816110cc565b92915050565b6000819050919050565b61110b816110f8565b811461111657600080fd5b50565b60008135905061112881611102565b92915050565b6000806040838503121561114557611144611090565b5b6000611153858286016110e3565b925050602061116485828601611119565b9150509250929050565b60008115159050919050565b6111838161116e565b82525050565b600060208201905061119e600083018461117a565b92915050565b6111ad816110f8565b82525050565b60006020820190506111c860008301846111a4565b92915050565b6000602082840312156111e4576111e3611090565b5b60006111f284828501611119565b91505092915050565b60008060006060848603121561121457611213611090565b5b6000611222868287016110e3565b9350506020611233868287016110e3565b925050604061124486828701611119565b9150509250925092565b600060ff82169050919050565b6112648161124e565b82525050565b600060208201905061127f600083018461125b565b92915050565b60006020828403121561129b5761129a611090565b5b60006112a9848285016110e3565b91505092915050565b6112bb816110ba565b82525050565b60006020820190506112d660008301846112b2565b92915050565b600080fd5b600080fd5b600080fd5b60008083601f840112611301576113006112dc565b5b8235905067ffffffffffffffff81111561131e5761131d6112e1565b5b60208301915083600182028301111561133a576113396112e6565b5b9250929050565b6000806000806060858703121561135b5761135a611090565b5b6000611369878288016110e3565b945050602061137a87828801611119565b935050604085013567ffffffffffffffff81111561139b5761139a611095565b5b6113a7878288016112eb565b925092505092959194509250565b600080604083850312156113cc576113cb611090565b5b60006113da858286016110e3565b92505060206113eb858286016110e3565b9150509250929050565b7f4e487b7100000000000000000000000000000000000000000000000000000000600052602260045260246000fd5b6000600282049050600182168061143c57607f821691505b60208210810361144f5761144e6113f5565b5b50919050565b7f4e487b7100000000000000000000000000000000000000000000000000000000600052601160045260246000fd5b600061148f826110f8565b91507fffffffffffffffffffffffffffffffffffffffffffffffffffffffffffffffff82036114c1576114c0611455565b5b600182019050919050565b600082905092915050565b7f4e487b7100000000000000000000000000000000000000000000000000000000600052604160045260246000fd5b60008190508160005260206000209050919050565b60006020601f8301049050919050565b600082821b905092915050565b6000600883026115687fffffffffffffffffffffffffffffffffffffffffffffffffffffffffffffffff8261152b565b611572868361152b565b95508019841693508086168417925050509392505050565b6000819050919050565b60006115af6115aa6115a5846110f8565b61158a565b6110f8565b9050919050565b6000819050919050565b6115c983611594565b6115dd6115d5826115b6565b848454611538565b825550505050565b600090565b6115f26115e5565b6115fd8184846115c0565b505050565b5b81811015611621576116166000826115ea565b600181019050611603565b5050565b601f8211156116665761163781611506565b6116408461151b565b8101602085101561164f578190505b61166361165b8561151b565b830182611602565b50505b505050565b600082821c905092915050565b60006116896000198460080261166b565b1980831691505092915050565b60006116a28383611678565b9150826002028217905092915050565b6116bc83836114cc565b67ffffffffffffffff8111156116d5576116d46114d7565b5b6116df8254611424565b6116ea828285611625565b6000601f8311600181146117195760008415611707578287013590505b6117118582611696565b865550611779565b601f19841661172786611506565b60005b8281101561174f5784890135825560018201915060208501945060208101905061172a565b8683101561176c5784890135611768601f891682611678565b8355505b6001600288020188555050505b50505050505050565b82818337600083830152505050565b600061179d8385610fe9565b93506117aa838584611782565b6117b383611024565b840190509392505050565b60006040820190506117d360008301866111a4565b81810360208301526117e6818486611791565b9050949350505050565b600060608201905061180560008301866112b2565b61181260208301856111a4565b61181f60408301846111a4565b949350505050565b6000611832826110f8565b915061183d836110f8565b925082820190508082111561185557611854611455565b5b9291505056fea26469706673582212206d339573bafbeb0619d86ca237dff8d3b90aed4e0f893848806a0ddef7fda0a264736f6c63430008140033",
  "linkReferences": {},
  "deployedLinkReferences": {}
}